{
  "_format": "hh-sol-artifact-1",
  "contractName": "Message",
  "sourceName": "contracts/Message.sol",
  "abi": [
    {
      "anonymous": false,
      "inputs": [
        {
          "indexed": true,
          "internalType": "address",
          "name": "sender",
          "type": "address"
        },
        {
          "indexed": false,
          "internalType": "string",
          "name": "content",
          "type": "string"
        },
        {
          "indexed": false,
          "internalType": "uint256",
          "name": "timestamp",
          "type": "uint256"
        }
      ],
      "name": "NewMessage",
      "type": "event"
    },
    {
      "inputs": [
        {
          "internalType": "address",
          "name": "_sender",
          "type": "address"
        }
      ],
      "name": "getMessageByAddress",
      "outputs": [
        {
          "components": [
            {
              "internalType": "address",
              "name": "sender",
              "type": "address"
            },
            {
              "internalType": "string",
              "name": "content",
              "type": "string"
            },
            {
              "internalType": "uint256",
              "name": "timestamp",
              "type": "uint256"
            }
          ],
          "internalType": "struct Message.MessageData[]",
          "name": "",
          "type": "tuple[]"
        }
      ],
      "stateMutability": "view",
      "type": "function"
    },
    {
      "inputs": [],
      "name": "getMessages",
      "outputs": [
        {
          "components": [
            {
              "internalType": "address",
              "name": "sender",
              "type": "address"
            },
            {
              "internalType": "string",
              "name": "content",
              "type": "string"
            },
            {
              "internalType": "uint256",
              "name": "timestamp",
              "type": "uint256"
            }
          ],
          "internalType": "struct Message.MessageData[]",
          "name": "",
          "type": "tuple[]"
        }
      ],
      "stateMutability": "view",
      "type": "function"
    },
    {
      "inputs": [
        {
          "internalType": "uint256",
          "name": "",
          "type": "uint256"
        }
      ],
      "name": "messages",
      "outputs": [
        {
          "internalType": "address",
          "name": "sender",
          "type": "address"
        },
        {
          "internalType": "string",
          "name": "content",
          "type": "string"
        },
        {
          "internalType": "uint256",
          "name": "timestamp",
          "type": "uint256"
        }
      ],
      "stateMutability": "view",
      "type": "function"
    },
    {
      "inputs": [
        {
          "internalType": "string",
          "name": "_content",
          "type": "string"
        }
      ],
      "name": "sendMessage",
      "outputs": [],
      "stateMutability": "nonpayable",
      "type": "function"
    }
  ],
  "bytecode": "0x608060405234801561001057600080fd5b506109ab806100206000396000f3fe608060405234801561001057600080fd5b506004361061004c5760003560e01c80630d80fefd14610051578063469c81101461007c5780635ff6cbf314610091578063b9144b8c146100a6575b600080fd5b61006461005f3660046105df565b6100b9565b6040516100739392919061063e565b60405180910390f35b61008f61008a366004610672565b610181565b005b610099610274565b60405161007391906106e4565b6100996100b4366004610770565b610385565b600081815481106100c957600080fd5b6000918252602090912060039091020180546001820180546001600160a01b039092169350906100f8906107a0565b80601f0160208091040260200160405190810160405280929190818152602001828054610124906107a0565b80156101715780601f1061014657610100808354040283529160200191610171565b820191906000526020600020905b81548152906001019060200180831161015457829003601f168201915b5050505050908060020154905083565b60006040518060600160405280336001600160a01b0316815260200184848080601f01602080910402602001604051908101604052809392919081815260200183838082843760009201829052509385525050426020938401525083546001808201865594825290829020835160039092020180546001600160a01b0319166001600160a01b03909216919091178155908201519192909190820190610227908261083f565b506040918201516002909101555133907f4bba44446aea2a9f27db36c95346239fd392bf3a497349684a3890d0d764077d90610268908590859042906108ff565b60405180910390a25050565b60606000805480602002602001604051908101604052809291908181526020016000905b8282101561037c57600084815260209081902060408051606081019091526003850290910180546001600160a01b0316825260018101805492939192918401916102e1906107a0565b80601f016020809104026020016040519081016040528092919081815260200182805461030d906107a0565b801561035a5780601f1061032f5761010080835404028352916020019161035a565b820191906000526020600020905b81548152906001019060200180831161033d57829003601f168201915b5050505050815260200160028201548152505081526020019060010190610298565b50505050905090565b60606000805b6000548110156103f157836001600160a01b0316600082815481106103b2576103b2610938565b60009182526020909120600390910201546001600160a01b0316036103df57816103db8161094e565b9250505b806103e98161094e565b91505061038b565b5060008167ffffffffffffffff81111561040d5761040d6107da565b60405190808252806020026020018201604052801561046b57816020015b610458604051806060016040528060006001600160a01b0316815260200160608152602001600081525090565b81526020019060019003908161042b5790505b5090506000805b6000548110156105d557856001600160a01b03166000828154811061049957610499610938565b60009182526020909120600390910201546001600160a01b0316036105c357600081815481106104cb576104cb610938565b6000918252602091829020604080516060810190915260039092020180546001600160a01b03168252600181018054929391929184019161050b906107a0565b80601f0160208091040260200160405190810160405280929190818152602001828054610537906107a0565b80156105845780601f1061055957610100808354040283529160200191610584565b820191906000526020600020905b81548152906001019060200180831161056757829003601f168201915b505050505081526020016002820154815250508383815181106105a9576105a9610938565b602002602001018190525081806105bf9061094e565b9250505b806105cd8161094e565b915050610472565b5090949350505050565b6000602082840312156105f157600080fd5b5035919050565b6000815180845260005b8181101561061e57602081850181015186830182015201610602565b506000602082860101526020601f19601f83011685010191505092915050565b6001600160a01b0384168152606060208201819052600090610662908301856105f8565b9050826040830152949350505050565b6000806020838503121561068557600080fd5b823567ffffffffffffffff8082111561069d57600080fd5b818501915085601f8301126106b157600080fd5b8135818111156106c057600080fd5b8660208285010111156106d257600080fd5b60209290920196919550909350505050565b60006020808301818452808551808352604092508286019150828160051b87010184880160005b8381101561076257888303603f19018552815180516001600160a01b0316845287810151606089860181905290610744828701826105f8565b9289015195890195909552509487019492509086019060010161070b565b509098975050505050505050565b60006020828403121561078257600080fd5b81356001600160a01b038116811461079957600080fd5b9392505050565b600181811c908216806107b457607f821691505b6020821081036107d457634e487b7160e01b600052602260045260246000fd5b50919050565b634e487b7160e01b600052604160045260246000fd5b601f82111561083a57600081815260208120601f850160051c810160208610156108175750805b601f850160051c820191505b8181101561083657828155600101610823565b5050505b505050565b815167ffffffffffffffff811115610859576108596107da565b61086d8161086784546107a0565b846107f0565b602080601f8311600181146108a2576000841561088a5750858301515b600019600386901b1c1916600185901b178555610836565b600085815260208120601f198616915b828110156108d1578886015182559484019460019091019084016108b2565b50858210156108ef5787850151600019600388901b60f8161c191681555b5050505050600190811b01905550565b604081528260408201528284606083013760006060848301015260006060601f19601f8601168301019050826020830152949350505050565b634e487b7160e01b600052603260045260246000fd5b60006001820161096e57634e487b7160e01b600052601160045260246000fd5b506001019056fea26469706673582212204c1610c8cf110cf39acae630026e5605250a531cc776905207bf2dc8f085da9d64736f6c63430008140033",
  "linkReferences": {},
  "deployedLinkReferences": {}
}