{
  "_format": "hh-sol-artifact-1",
  "contractName": "RedPacket",
  "sourceName": "contracts/RedPacket.sol",
  "abi": [
    {
      "inputs": [],
      "stateMutability": "nonpayable",
      "type": "constructor"
    },
    {
      "anonymous": false,
      "inputs": [
        {
          "indexed": true,
          "internalType": "address",
          "name": "grabber",
          "type": "address"
        },
        {
          "indexed": false,
          "internalType": "uint256",
          "name": "amount",
          "type": "uint256"
        },
        {
          "indexed": false,
          "internalType": "uint256",
          "name": "timestamp",
          "type": "uint256"
        }
      ],
      "name": "RedPacketGrabbed",
      "type": "event"
    },
    {
      "anonymous": false,
      "inputs": [
        {
          "indexed": true,
          "internalType": "address",
          "name": "owner",
          "type": "address"
        },
        {
          "indexed": false,
          "internalType": "uint8",
          "name": "totalPackets",
          "type": "uint8"
        },
        {
          "indexed": false,
          "internalType": "uint256",
          "name": "totalAmount",
          "type": "uint256"
        },
        {
          "indexed": false,
          "internalType": "bool",
          "name": "isEqual",
          "type": "bool"
        },
        {
          "indexed": false,
          "internalType": "uint256",
          "name": "timestamp",
          "type": "uint256"
        }
      ],
      "name": "RedPacketPublished",
      "type": "event"
    },
    {
      "anonymous": false,
      "inputs": [
        {
          "indexed": true,
          "internalType": "address",
          "name": "owner",
          "type": "address"
        },
        {
          "indexed": false,
          "internalType": "uint256",
          "name": "amount",
          "type": "uint256"
        },
        {
          "indexed": false,
          "internalType": "uint256",
          "name": "timestamp",
          "type": "uint256"
        }
      ],
      "name": "RedPacketReclaimed",
      "type": "event"
    },
    {
      "inputs": [],
      "name": "currentRoundId",
      "outputs": [
        {
          "internalType": "uint256",
          "name": "",
          "type": "uint256"
        }
      ],
      "stateMutability": "view",
      "type": "function"
    },
    {
      "inputs": [],
      "name": "getContractBalance",
      "outputs": [
        {
          "internalType": "uint256",
          "name": "",
          "type": "uint256"
        }
      ],
      "stateMutability": "view",
      "type": "function"
    },
    {
      "inputs": [],
      "name": "grabRedPacket",
      "outputs": [],
      "stateMutability": "nonpayable",
      "type": "function"
    },
    {
      "inputs": [
        {
          "internalType": "address",
          "name": "user",
          "type": "address"
        }
      ],
      "name": "hasGrabbedCurrentRound",
      "outputs": [
        {
          "internalType": "bool",
          "name": "",
          "type": "bool"
        }
      ],
      "stateMutability": "view",
      "type": "function"
    },
    {
      "inputs": [],
      "name": "isEqual",
      "outputs": [
        {
          "internalType": "bool",
          "name": "",
          "type": "bool"
        }
      ],
      "stateMutability": "view",
      "type": "function"
    },
    {
      "inputs": [],
      "name": "owner",
      "outputs": [
        {
          "internalType": "address",
          "name": "",
          "type": "address"
        }
      ],
      "stateMutability": "view",
      "type": "function"
    },
    {
      "inputs": [
        {
          "internalType": "uint8",
          "name": "_totalPackets",
          "type": "uint8"
        },
        {
          "internalType": "uint256",
          "name": "_totalAmount",
          "type": "uint256"
        },
        {
          "internalType": "bool",
          "name": "_isEqual",
          "type": "bool"
        }
      ],
      "name": "publishRedPacket",
      "outputs": [],
      "stateMutability": "payable",
      "type": "function"
    },
    {
      "inputs": [],
      "name": "reclaimUnclaimed",
      "outputs": [],
      "stateMutability": "nonpayable",
      "type": "function"
    },
    {
      "inputs": [],
      "name": "remainingAmount",
      "outputs": [
        {
          "internalType": "uint256",
          "name": "",
          "type": "uint256"
        }
      ],
      "stateMutability": "view",
      "type": "function"
    },
    {
      "inputs": [],
      "name": "remainingPackets",
      "outputs": [
        {
          "internalType": "uint8",
          "name": "",
          "type": "uint8"
        }
      ],
      "stateMutability": "view",
      "type": "function"
    },
    {
      "inputs": [],
      "name": "totalAmount",
      "outputs": [
        {
          "internalType": "uint256",
          "name": "",
          "type": "uint256"
        }
      ],
      "stateMutability": "view",
      "type": "function"
    },
    {
      "inputs": [],
      "name": "totalPackets",
      "outputs": [
        {
          "internalType": "uint8",
          "name": "",
          "type": "uint8"
        }
      ],
      "stateMutability": "view",
      "type": "function"
    }
  ],
  "bytecode": "0x608060405234801561001057600080fd5b50600080546001600160a01b03191633178155600455610a55806100356000396000f3fe6080604052600436106100a75760003560e01c8063acbe845211610064578063acbe84521461017f578063baa93d75146101a9578063c081dba9146101be578063c4712e21146101df578063f5aa19b7146101f4578063f6586a8a1461020957600080fd5b80631a39d8ef146100ac5780636f9fb98a146100d557806385763ebd146100e85780638da5cb5b1461011b5780639cbe5efd14610153578063a50a1fe614610169575b600080fd5b3480156100b857600080fd5b506100c260015481565b6040519081526020015b60405180910390f35b3480156100e157600080fd5b50476100c2565b3480156100f457600080fd5b5060005461010990600160a01b900460ff1681565b60405160ff90911681526020016100cc565b34801561012757600080fd5b5060005461013b906001600160a01b031681565b6040516001600160a01b0390911681526020016100cc565b34801561015f57600080fd5b506100c260045481565b34801561017557600080fd5b506100c260025481565b34801561018b57600080fd5b506003546101999060ff1681565b60405190151581526020016100cc565b6101bc6101b73660046108d3565b610250565b005b3480156101ca57600080fd5b5060005461010990600160a81b900460ff1681565b3480156101eb57600080fd5b506101bc610491565b34801561020057600080fd5b506101bc610719565b34801561021557600080fd5b50610199610224366004610920565b60045460009081526005602090815260408083206001600160a01b039094168352929052205460ff1690565b6000546001600160a01b031633146102b95760405162461bcd60e51b815260206004820152602160248201527f4f6e6c79206f776e65722063616e207075626c69736820726564207061636b656044820152601d60fa1b60648201526084015b60405180910390fd5b60008360ff16116103185760405162461bcd60e51b8152602060048201526024808201527f546f74616c207061636b657473206d75737420626520677265617465722074686044820152630616e20360e41b60648201526084016102b0565b600082116103745760405162461bcd60e51b815260206004820152602360248201527f546f74616c20616d6f756e74206d75737420626520677265617465722074686160448201526206e20360ec1b60648201526084016102b0565b600054600160a81b900460ff16156103ce5760405162461bcd60e51b815260206004820181905260248201527f50726576696f757320726564207061636b6574206e6f742066696e697368656460448201526064016102b0565b600480549060006103de83610966565b90915550506000805461ffff60a01b1916600160a01b60ff86811682810260ff60a81b191693909317600160a81b939093029290921792839055600185905560028590556003805460ff1916851515908117909155604080519285048416835260208301879052921615158183015242606082015290516001600160a01b03909216917fec8d695ff984bd8943cdb825d118e12ca0951502ce5fd4d7a7a1a28aae3015b8916080908290030190a2505050565b600054600160a81b900460ff166104e15760405162461bcd60e51b81526020600482015260146024820152734e6f2072656d61696e696e67207061636b65747360601b60448201526064016102b0565b600454600090815260056020908152604080832033845290915290205460ff16156105585760405162461bcd60e51b815260206004820152602160248201527f596f75206861766520616c726561647920677261626265642061207061636b656044820152601d60fa1b60648201526084016102b0565b60035460009060ff16156105875760005460015461058091600160a01b900460ff1690610995565b905061063f565b600054600160a81b900460ff166001036105a4575060025461063f565b600080546105be90600190600160a81b900460ff166109a9565b60ff166002546105ce91906109c8565b90506105db6001826109c8565b600254604080514260208201526bffffffffffffffffffffffff193360601b169181019190915260548101919091526074016040516020818303038152906040528051906020012060001c61063091906109db565b61063b9060016109ef565b9150505b604051339082156108fc029083906000818181858888f1935050505015801561066c573d6000803e3d6000fd5b5060045460009081526005602090815260408083203384529091528120805460ff191660011790558054600160a81b900460ff169060156106ac83610a02565b91906101000a81548160ff021916908360ff1602179055505080600260008282546106d791906109c8565b90915550506040805182815242602082015233917fb5abd1ff1c1ebf8a4b9a732f79bb17f0d4239c3fc9d12d48ac16d9721778afd7910160405180910390a250565b6000546001600160a01b031633146107845760405162461bcd60e51b815260206004820152602860248201527f4f6e6c79206f776e65722063616e207265636c61696d20756e636c61696d6564604482015267207061636b65747360c01b60648201526084016102b0565b600054600160a81b900460ff166107dd5760405162461bcd60e51b815260206004820152601f60248201527f4e6f2072656d61696e696e67207061636b65747320746f207265636c61696d0060448201526064016102b0565b600280546000805460ff60a81b198116825592819055604051919290916001600160a01b039091169083908381818185875af1925050503d8060008114610840576040519150601f19603f3d011682016040523d82523d6000602084013e610845565b606091505b50509050806108885760405162461bcd60e51b815260206004820152600f60248201526e151c985b9cd9995c8819985a5b1959608a1b60448201526064016102b0565b600054604080518481524260208201526001600160a01b03909216917f775607f06815bebfbbdf77a924ad9bf219ab785ebb973931ed717874d98a10df910160405180910390a25050565b6000806000606084860312156108e857600080fd5b833560ff811681146108f957600080fd5b9250602084013591506040840135801515811461091557600080fd5b809150509250925092565b60006020828403121561093257600080fd5b81356001600160a01b038116811461094957600080fd5b9392505050565b634e487b7160e01b600052601160045260246000fd5b60006001820161097857610978610950565b5060010190565b634e487b7160e01b600052601260045260246000fd5b6000826109a4576109a461097f565b500490565b60ff82811682821603908111156109c2576109c2610950565b92915050565b818103818111156109c2576109c2610950565b6000826109ea576109ea61097f565b500690565b808201808211156109c2576109c2610950565b600060ff821680610a1557610a15610950565b600019019291505056fea2646970667358221220bf8755d1abe9d2d6fdc2f00032743cb5cf639cf7d637f5bfeaa364ed6a11e22e64736f6c63430008140033",
  "linkReferences": {},
  "deployedLinkReferences": {}
}