{
  "_format": "hh-sol-artifact-1",
  "contractName": "WalletTransfer",
  "sourceName": "contracts/WalletTransfer.sol",
  "abi": [
    {
      "inputs": [],
      "stateMutability": "nonpayable",
      "type": "constructor"
    },
    {
      "inputs": [
        {
          "internalType": "address",
          "name": "owner",
          "type": "address"
        }
      ],
      "name": "OwnableInvalidOwner",
      "type": "error"
    },
    {
      "inputs": [
        {
          "internalType": "address",
          "name": "account",
          "type": "address"
        }
      ],
      "name": "OwnableUnauthorizedAccount",
      "type": "error"
    },
    {
      "inputs": [],
      "name": "ReentrancyGuardReentrantCall",
      "type": "error"
    },
    {
      "anonymous": false,
      "inputs": [
        {
          "indexed": true,
          "internalType": "address",
          "name": "user",
          "type": "address"
        },
        {
          "indexed": false,
          "internalType": "uint256",
          "name": "amount",
          "type": "uint256"
        },
        {
          "indexed": false,
          "internalType": "uint256",
          "name": "newBalance",
          "type": "uint256"
        },
        {
          "indexed": false,
          "internalType": "uint256",
          "name": "timestamp",
          "type": "uint256"
        }
      ],
      "name": "Deposit",
      "type": "event"
    },
    {
      "anonymous": false,
      "inputs": [
        {
          "indexed": true,
          "internalType": "address",
          "name": "previousOwner",
          "type": "address"
        },
        {
          "indexed": true,
          "internalType": "address",
          "name": "newOwner",
          "type": "address"
        }
      ],
      "name": "OwnershipTransferred",
      "type": "event"
    },
    {
      "anonymous": false,
      "inputs": [
        {
          "indexed": true,
          "internalType": "address",
          "name": "from",
          "type": "address"
        },
        {
          "indexed": true,
          "internalType": "address",
          "name": "to",
          "type": "address"
        },
        {
          "indexed": false,
          "internalType": "uint256",
          "name": "amount",
          "type": "uint256"
        },
        {
          "indexed": false,
          "internalType": "uint256",
          "name": "timestamp",
          "type": "uint256"
        }
      ],
      "name": "Transfer",
      "type": "event"
    },
    {
      "anonymous": false,
      "inputs": [
        {
          "indexed": true,
          "internalType": "address",
          "name": "user",
          "type": "address"
        },
        {
          "indexed": false,
          "internalType": "uint256",
          "name": "amount",
          "type": "uint256"
        },
        {
          "indexed": false,
          "internalType": "uint256",
          "name": "newBalance",
          "type": "uint256"
        },
        {
          "indexed": false,
          "internalType": "uint256",
          "name": "timestamp",
          "type": "uint256"
        }
      ],
      "name": "Withdrawal",
      "type": "event"
    },
    {
      "inputs": [
        {
          "internalType": "address",
          "name": "",
          "type": "address"
        }
      ],
      "name": "balances",
      "outputs": [
        {
          "internalType": "uint256",
          "name": "",
          "type": "uint256"
        }
      ],
      "stateMutability": "view",
      "type": "function"
    },
    {
      "inputs": [],
      "name": "deposit",
      "outputs": [],
      "stateMutability": "payable",
      "type": "function"
    },
    {
      "inputs": [
        {
          "internalType": "address",
          "name": "user",
          "type": "address"
        }
      ],
      "name": "getBalance",
      "outputs": [
        {
          "internalType": "uint256",
          "name": "",
          "type": "uint256"
        }
      ],
      "stateMutability": "view",
      "type": "function"
    },
    {
      "inputs": [],
      "name": "getContractBalance",
      "outputs": [
        {
          "internalType": "uint256",
          "name": "",
          "type": "uint256"
        }
      ],
      "stateMutability": "view",
      "type": "function"
    },
    {
      "inputs": [],
      "name": "owner",
      "outputs": [
        {
          "internalType": "address",
          "name": "",
          "type": "address"
        }
      ],
      "stateMutability": "view",
      "type": "function"
    },
    {
      "inputs": [],
      "name": "renounceOwnership",
      "outputs": [],
      "stateMutability": "nonpayable",
      "type": "function"
    },
    {
      "inputs": [
        {
          "internalType": "address",
          "name": "to",
          "type": "address"
        },
        {
          "internalType": "uint256",
          "name": "amount",
          "type": "uint256"
        }
      ],
      "name": "transfer",
      "outputs": [],
      "stateMutability": "nonpayable",
      "type": "function"
    },
    {
      "inputs": [
        {
          "internalType": "address",
          "name": "newOwner",
          "type": "address"
        }
      ],
      "name": "transferOwnership",
      "outputs": [],
      "stateMutability": "nonpayable",
      "type": "function"
    },
    {
      "inputs": [
        {
          "internalType": "uint256",
          "name": "amount",
          "type": "uint256"
        }
      ],
      "name": "withdraw",
      "outputs": [],
      "stateMutability": "nonpayable",
      "type": "function"
    },
    {
      "stateMutability": "payable",
      "type": "receive"
    }
  ],
  "bytecode": "0x608060405234801561001057600080fd5b506001600055338061003c57604051631e4fbdf760e01b81526000600482015260240160405180910390fd5b6100458161004b565b5061009d565b600180546001600160a01b038381166001600160a01b0319831681179093556040519116919082907f8be0079c531659141344cd1fd0a4f28419497f9722a3daafe3b4186f6b6457e090600090a35050565b610880806100ac6000396000f3fe60806040526004361061008a5760003560e01c80638da5cb5b116100595780638da5cb5b14610192578063a9059cbb146101ba578063d0e30db0146101da578063f2fde38b146101e2578063f8b2cb4f1461020257600080fd5b806327e235e3146101085780632e1a7d4d146101485780636f9fb98a1461016a578063715018a61461017d57600080fd5b366101035733600090815260026020526040812080543492906100ae90849061079d565b90915550503360008181526002602090815260409182902054825134815291820152428183015290517f36af321ec8d3c75236829c5317affd40ddb308863a1236d2d277a4025cccee1e9181900360600190a2005b600080fd5b34801561011457600080fd5b506101356101233660046107d2565b60026020526000908152604090205481565b6040519081526020015b60405180910390f35b34801561015457600080fd5b506101686101633660046107f4565b610238565b005b34801561017657600080fd5b5047610135565b34801561018957600080fd5b50610168610406565b34801561019e57600080fd5b506001546040516001600160a01b03909116815260200161013f565b3480156101c657600080fd5b506101686101d536600461080d565b61041a565b6101686105d1565b3480156101ee57600080fd5b506101686101fd3660046107d2565b6106a3565b34801561020e57600080fd5b5061013561021d3660046107d2565b6001600160a01b031660009081526002602052604090205490565b6102406106de565b600081116102a65760405162461bcd60e51b815260206004820152602860248201527f5769746864726177616c20616d6f756e74206d75737420626520677265617465604482015267072207468616e20360c41b60648201526084015b60405180910390fd5b336000908152600260205260409020548111156102fc5760405162461bcd60e51b8152602060048201526014602482015273496e73756666696369656e742062616c616e636560601b604482015260640161029d565b336000908152600260205260408120805483929061031b908490610837565b9091555050604051600090339083908381818185875af1925050503d8060008114610362576040519150601f19603f3d011682016040523d82523d6000602084013e610367565b606091505b50509050806103aa5760405162461bcd60e51b815260206004820152600f60248201526e151c985b9cd9995c8819985a5b1959608a1b604482015260640161029d565b3360008181526002602090815260409182902054825186815291820152428183015290517f650fdf669e93aa6c8ff3defe2da9c12b64f1548e5e1e54e803f4c1beb6466c8e9181900360600190a2506104036001600055565b50565b61040e610708565b6104186000610735565b565b6104226106de565b6001600160a01b0382166104785760405162461bcd60e51b815260206004820152601f60248201527f43616e6e6f74207472616e7366657220746f207a65726f206164647265737300604482015260640161029d565b600081116104d75760405162461bcd60e51b815260206004820152602660248201527f5472616e7366657220616d6f756e74206d75737420626520677265617465722060448201526507468616e20360d41b606482015260840161029d565b3360009081526002602052604090205481111561052d5760405162461bcd60e51b8152602060048201526014602482015273496e73756666696369656e742062616c616e636560601b604482015260640161029d565b336000908152600260205260408120805483929061054c908490610837565b90915550506001600160a01b0382166000908152600260205260408120805483929061057990849061079d565b9091555050604080518281524260208201526001600160a01b0384169133917f9ed053bb818ff08b8353cd46f78db1f0799f31c9e4458fdb425c10eccd2efc44910160405180910390a36105cd6001600055565b5050565b6000341161062f5760405162461bcd60e51b815260206004820152602560248201527f4465706f73697420616d6f756e74206d75737420626520677265617465722074604482015264068616e20360dc1b606482015260840161029d565b336000908152600260205260408120805434929061064e90849061079d565b90915550503360008181526002602090815260409182902054825134815291820152428183015290517f36af321ec8d3c75236829c5317affd40ddb308863a1236d2d277a4025cccee1e9181900360600190a2565b6106ab610708565b6001600160a01b0381166106d557604051631e4fbdf760e01b81526000600482015260240161029d565b61040381610735565b60026000540361070157604051633ee5aeb560e01b815260040160405180910390fd5b6002600055565b6001546001600160a01b031633146104185760405163118cdaa760e01b815233600482015260240161029d565b600180546001600160a01b038381166001600160a01b0319831681179093556040519116919082907f8be0079c531659141344cd1fd0a4f28419497f9722a3daafe3b4186f6b6457e090600090a35050565b634e487b7160e01b600052601160045260246000fd5b808201808211156107b0576107b0610787565b92915050565b80356001600160a01b03811681146107cd57600080fd5b919050565b6000602082840312156107e457600080fd5b6107ed826107b6565b9392505050565b60006020828403121561080657600080fd5b5035919050565b6000806040838503121561082057600080fd5b610829836107b6565b946020939093013593505050565b818103818111156107b0576107b061078756fea26469706673582212206ad31fefa87e9e924134781caff1381763fa80d259547b1881fccdd19adcbede64736f6c63430008140033",
  "linkReferences": {},
  "deployedLinkReferences": {}
}